{
  "_format": "hh-sol-artifact-1",
  "contractName": "Supplychain",
  "sourceName": "contracts/Supplychain/Supplychain.sol",
  "abi": [
    {
      "inputs": [],
      "stateMutability": "payable",
      "type": "constructor"
    },
    {
      "anonymous": false,
      "inputs": [
        {
          "indexed": true,
          "internalType": "address",
          "name": "account",
          "type": "address"
        }
      ],
      "name": "ConsumerAdded",
      "type": "event"
    },
    {
      "anonymous": false,
      "inputs": [
        {
          "indexed": true,
          "internalType": "address",
          "name": "account",
          "type": "address"
        }
      ],
      "name": "ConsumerRemoved",
      "type": "event"
    },
    {
      "anonymous": false,
      "inputs": [
        {
          "indexed": true,
          "internalType": "address",
          "name": "account",
          "type": "address"
        }
      ],
      "name": "DistributorAdded",
      "type": "event"
    },
    {
      "anonymous": false,
      "inputs": [
        {
          "indexed": true,
          "internalType": "address",
          "name": "account",
          "type": "address"
        }
      ],
      "name": "DistributorRemoved",
      "type": "event"
    },
    {
      "anonymous": false,
      "inputs": [
        {
          "indexed": true,
          "internalType": "address",
          "name": "account",
          "type": "address"
        }
      ],
      "name": "ManufacturerAdded",
      "type": "event"
    },
    {
      "anonymous": false,
      "inputs": [
        {
          "indexed": true,
          "internalType": "address",
          "name": "account",
          "type": "address"
        }
      ],
      "name": "ManufacturerRemoved",
      "type": "event"
    },
    {
      "anonymous": false,
      "inputs": [
        {
          "indexed": true,
          "internalType": "address",
          "name": "previousOwner",
          "type": "address"
        },
        {
          "indexed": true,
          "internalType": "address",
          "name": "newOwner",
          "type": "address"
        }
      ],
      "name": "OwnershipTransferred",
      "type": "event"
    },
    {
      "anonymous": false,
      "inputs": [
        {
          "indexed": true,
          "internalType": "address",
          "name": "account",
          "type": "address"
        }
      ],
      "name": "RetailerAdded",
      "type": "event"
    },
    {
      "anonymous": false,
      "inputs": [
        {
          "indexed": true,
          "internalType": "address",
          "name": "account",
          "type": "address"
        }
      ],
      "name": "RetailerRemoved",
      "type": "event"
    },
    {
      "inputs": [
        {
          "internalType": "address",
          "name": "myAddress",
          "type": "address"
        },
        {
          "internalType": "uint8",
          "name": "myRole",
          "type": "uint8"
        }
      ],
      "name": "AddMe",
      "outputs": [],
      "stateMutability": "payable",
      "type": "function"
    },
    {
      "inputs": [
        {
          "internalType": "uint256",
          "name": "_productCode",
          "type": "uint256"
        },
        {
          "internalType": "string",
          "name": "_productInfo",
          "type": "string"
        },
        {
          "internalType": "uint256",
          "name": "_expiryDate",
          "type": "uint256"
        },
        {
          "internalType": "uint256",
          "name": "_manufacturingDate",
          "type": "uint256"
        },
        {
          "internalType": "uint256",
          "name": "_price",
          "type": "uint256"
        },
        {
          "internalType": "uint256",
          "name": "_productQuantity",
          "type": "uint256"
        }
      ],
      "name": "ProduceItemByManufacturer",
      "outputs": [],
      "stateMutability": "nonpayable",
      "type": "function"
    },
    {
      "inputs": [
        {
          "internalType": "address",
          "name": "account",
          "type": "address"
        }
      ],
      "name": "addConsumer",
      "outputs": [],
      "stateMutability": "nonpayable",
      "type": "function"
    },
    {
      "inputs": [
        {
          "internalType": "address",
          "name": "account",
          "type": "address"
        }
      ],
      "name": "addDistributor",
      "outputs": [],
      "stateMutability": "nonpayable",
      "type": "function"
    },
    {
      "inputs": [
        {
          "internalType": "address",
          "name": "account",
          "type": "address"
        }
      ],
      "name": "addManufacturer",
      "outputs": [],
      "stateMutability": "nonpayable",
      "type": "function"
    },
    {
      "inputs": [
        {
          "internalType": "address",
          "name": "account",
          "type": "address"
        }
      ],
      "name": "addRetailer",
      "outputs": [],
      "stateMutability": "nonpayable",
      "type": "function"
    },
    {
      "inputs": [
        {
          "internalType": "uint256",
          "name": "_productCode",
          "type": "uint256"
        }
      ],
      "name": "fetchItemBufferOne",
      "outputs": [
        {
          "internalType": "uint256",
          "name": "itemstockUnit",
          "type": "uint256"
        },
        {
          "internalType": "uint256",
          "name": "itemproductCode",
          "type": "uint256"
        },
        {
          "internalType": "address",
          "name": "ownerID",
          "type": "address"
        },
        {
          "internalType": "address",
          "name": "manufacturerID",
          "type": "address"
        },
        {
          "internalType": "string",
          "name": "productInfo",
          "type": "string"
        },
        {
          "internalType": "uint256",
          "name": "expiryDate",
          "type": "uint256"
        },
        {
          "internalType": "uint256",
          "name": "manufacturingDate",
          "type": "uint256"
        },
        {
          "internalType": "enum Supplychain.state",
          "name": "itemState",
          "type": "uint8"
        }
      ],
      "stateMutability": "view",
      "type": "function"
    },
    {
      "inputs": [
        {
          "internalType": "uint256",
          "name": "_productCode",
          "type": "uint256"
        }
      ],
      "name": "fetchItemBufferTwo",
      "outputs": [
        {
          "internalType": "uint256",
          "name": "itemstockUnit",
          "type": "uint256"
        },
        {
          "internalType": "uint256",
          "name": "itemproductCode",
          "type": "uint256"
        },
        {
          "internalType": "uint256",
          "name": "productID",
          "type": "uint256"
        },
        {
          "internalType": "uint256",
          "name": "productPrice",
          "type": "uint256"
        },
        {
          "internalType": "enum Supplychain.state",
          "name": "itemState",
          "type": "uint8"
        },
        {
          "internalType": "address",
          "name": "distributorID",
          "type": "address"
        },
        {
          "internalType": "address",
          "name": "retailerID",
          "type": "address"
        },
        {
          "internalType": "address",
          "name": "consumerID",
          "type": "address"
        }
      ],
      "stateMutability": "view",
      "type": "function"
    },
    {
      "inputs": [],
      "name": "getAddOnSupplychain",
      "outputs": [
        {
          "components": [
            {
              "internalType": "address",
              "name": "myAddress",
              "type": "address"
            },
            {
              "internalType": "uint8",
              "name": "myRole",
              "type": "uint8"
            }
          ],
          "internalType": "struct Supplychain.ForAddingOnSupplychain[]",
          "name": "",
          "type": "tuple[]"
        }
      ],
      "stateMutability": "view",
      "type": "function"
    },
    {
      "inputs": [],
      "name": "getItemOnSaleByDistributor",
      "outputs": [
        {
          "components": [
            {
              "internalType": "uint256",
              "name": "onsaleproduct",
              "type": "uint256"
            },
            {
              "internalType": "address",
              "name": "onsaleby",
              "type": "address"
            },
            {
              "internalType": "uint256",
              "name": "onsalequantity",
              "type": "uint256"
            },
            {
              "internalType": "uint256",
              "name": "onsaleprice",
              "type": "uint256"
            }
          ],
          "internalType": "struct Supplychain.ItemOnSale[]",
          "name": "",
          "type": "tuple[]"
        }
      ],
      "stateMutability": "view",
      "type": "function"
    },
    {
      "inputs": [],
      "name": "getItemOnSaleByManufacturer",
      "outputs": [
        {
          "components": [
            {
              "internalType": "uint256",
              "name": "onsaleproduct",
              "type": "uint256"
            },
            {
              "internalType": "address",
              "name": "onsaleby",
              "type": "address"
            },
            {
              "internalType": "uint256",
              "name": "onsalequantity",
              "type": "uint256"
            },
            {
              "internalType": "uint256",
              "name": "onsaleprice",
              "type": "uint256"
            }
          ],
          "internalType": "struct Supplychain.ItemOnSale[]",
          "name": "",
          "type": "tuple[]"
        }
      ],
      "stateMutability": "view",
      "type": "function"
    },
    {
      "inputs": [],
      "name": "getItemOnSaleByRetailer",
      "outputs": [
        {
          "components": [
            {
              "internalType": "uint256",
              "name": "onsaleproduct",
              "type": "uint256"
            },
            {
              "internalType": "address",
              "name": "onsaleby",
              "type": "address"
            },
            {
              "internalType": "uint256",
              "name": "onsalequantity",
              "type": "uint256"
            },
            {
              "internalType": "uint256",
              "name": "onsaleprice",
              "type": "uint256"
            }
          ],
          "internalType": "struct Supplychain.ItemOnSale[]",
          "name": "",
          "type": "tuple[]"
        }
      ],
      "stateMutability": "view",
      "type": "function"
    },
    {
      "inputs": [],
      "name": "getItemProduced",
      "outputs": [
        {
          "components": [
            {
              "internalType": "address",
              "name": "producedby",
              "type": "address"
            },
            {
              "internalType": "uint256",
              "name": "producedcode",
              "type": "uint256"
            }
          ],
          "internalType": "struct Supplychain.ItemProduced[]",
          "name": "",
          "type": "tuple[]"
        }
      ],
      "stateMutability": "view",
      "type": "function"
    },
    {
      "inputs": [],
      "name": "getItemPurchasedByConsumer",
      "outputs": [
        {
          "components": [
            {
              "internalType": "uint256",
              "name": "purchasedproduct",
              "type": "uint256"
            },
            {
              "internalType": "address",
              "name": "purchasedby",
              "type": "address"
            },
            {
              "internalType": "uint256",
              "name": "timestamp",
              "type": "uint256"
            }
          ],
          "internalType": "struct Supplychain.ItemPurchased[]",
          "name": "",
          "type": "tuple[]"
        }
      ],
      "stateMutability": "view",
      "type": "function"
    },
    {
      "inputs": [],
      "name": "getItemPurchasedByDistributor",
      "outputs": [
        {
          "components": [
            {
              "internalType": "uint256",
              "name": "purchasedproduct",
              "type": "uint256"
            },
            {
              "internalType": "address",
              "name": "purchasedby",
              "type": "address"
            },
            {
              "internalType": "uint256",
              "name": "timestamp",
              "type": "uint256"
            }
          ],
          "internalType": "struct Supplychain.ItemPurchased[]",
          "name": "",
          "type": "tuple[]"
        }
      ],
      "stateMutability": "view",
      "type": "function"
    },
    {
      "inputs": [],
      "name": "getItemPurchasedByRetailer",
      "outputs": [
        {
          "components": [
            {
              "internalType": "uint256",
              "name": "purchasedproduct",
              "type": "uint256"
            },
            {
              "internalType": "address",
              "name": "purchasedby",
              "type": "address"
            },
            {
              "internalType": "uint256",
              "name": "timestamp",
              "type": "uint256"
            }
          ],
          "internalType": "struct Supplychain.ItemPurchased[]",
          "name": "",
          "type": "tuple[]"
        }
      ],
      "stateMutability": "view",
      "type": "function"
    },
    {
      "inputs": [],
      "name": "getItemReceivedByConsumer",
      "outputs": [
        {
          "components": [
            {
              "internalType": "uint256",
              "name": "receivedproduct",
              "type": "uint256"
            },
            {
              "internalType": "address",
              "name": "receivedby",
              "type": "address"
            },
            {
              "internalType": "uint256",
              "name": "timestamp",
              "type": "uint256"
            }
          ],
          "internalType": "struct Supplychain.ItemReceived[]",
          "name": "",
          "type": "tuple[]"
        }
      ],
      "stateMutability": "view",
      "type": "function"
    },
    {
      "inputs": [],
      "name": "getItemReceivedByDistributor",
      "outputs": [
        {
          "components": [
            {
              "internalType": "uint256",
              "name": "receivedproduct",
              "type": "uint256"
            },
            {
              "internalType": "address",
              "name": "receivedby",
              "type": "address"
            },
            {
              "internalType": "uint256",
              "name": "timestamp",
              "type": "uint256"
            }
          ],
          "internalType": "struct Supplychain.ItemReceived[]",
          "name": "",
          "type": "tuple[]"
        }
      ],
      "stateMutability": "view",
      "type": "function"
    },
    {
      "inputs": [],
      "name": "getItemReceivedByRetailer",
      "outputs": [
        {
          "components": [
            {
              "internalType": "uint256",
              "name": "receivedproduct",
              "type": "uint256"
            },
            {
              "internalType": "address",
              "name": "receivedby",
              "type": "address"
            },
            {
              "internalType": "uint256",
              "name": "timestamp",
              "type": "uint256"
            }
          ],
          "internalType": "struct Supplychain.ItemReceived[]",
          "name": "",
          "type": "tuple[]"
        }
      ],
      "stateMutability": "view",
      "type": "function"
    },
    {
      "inputs": [],
      "name": "getItemShippedByDistributor",
      "outputs": [
        {
          "components": [
            {
              "internalType": "uint256",
              "name": "shippedproduct",
              "type": "uint256"
            },
            {
              "internalType": "address",
              "name": "shippedby",
              "type": "address"
            },
            {
              "internalType": "address",
              "name": "shippedto",
              "type": "address"
            },
            {
              "internalType": "uint256",
              "name": "timestamp",
              "type": "uint256"
            }
          ],
          "internalType": "struct Supplychain.ItemShipped[]",
          "name": "",
          "type": "tuple[]"
        }
      ],
      "stateMutability": "view",
      "type": "function"
    },
    {
      "inputs": [],
      "name": "getItemShippedByManufacturer",
      "outputs": [
        {
          "components": [
            {
              "internalType": "uint256",
              "name": "shippedproduct",
              "type": "uint256"
            },
            {
              "internalType": "address",
              "name": "shippedby",
              "type": "address"
            },
            {
              "internalType": "address",
              "name": "shippedto",
              "type": "address"
            },
            {
              "internalType": "uint256",
              "name": "timestamp",
              "type": "uint256"
            }
          ],
          "internalType": "struct Supplychain.ItemShipped[]",
          "name": "",
          "type": "tuple[]"
        }
      ],
      "stateMutability": "view",
      "type": "function"
    },
    {
      "inputs": [],
      "name": "getItemShippedByRetailer",
      "outputs": [
        {
          "components": [
            {
              "internalType": "uint256",
              "name": "shippedproduct",
              "type": "uint256"
            },
            {
              "internalType": "address",
              "name": "shippedby",
              "type": "address"
            },
            {
              "internalType": "address",
              "name": "shippedto",
              "type": "address"
            },
            {
              "internalType": "uint256",
              "name": "timestamp",
              "type": "uint256"
            }
          ],
          "internalType": "struct Supplychain.ItemShipped[]",
          "name": "",
          "type": "tuple[]"
        }
      ],
      "stateMutability": "view",
      "type": "function"
    },
    {
      "inputs": [
        {
          "internalType": "address",
          "name": "account",
          "type": "address"
        }
      ],
      "name": "isConsumer",
      "outputs": [
        {
          "internalType": "bool",
          "name": "",
          "type": "bool"
        }
      ],
      "stateMutability": "view",
      "type": "function"
    },
    {
      "inputs": [
        {
          "internalType": "address",
          "name": "account",
          "type": "address"
        }
      ],
      "name": "isDistributor",
      "outputs": [
        {
          "internalType": "bool",
          "name": "",
          "type": "bool"
        }
      ],
      "stateMutability": "view",
      "type": "function"
    },
    {
      "inputs": [
        {
          "internalType": "address",
          "name": "account",
          "type": "address"
        }
      ],
      "name": "isManufacturer",
      "outputs": [
        {
          "internalType": "bool",
          "name": "",
          "type": "bool"
        }
      ],
      "stateMutability": "view",
      "type": "function"
    },
    {
      "inputs": [],
      "name": "isOwner",
      "outputs": [
        {
          "internalType": "address",
          "name": "",
          "type": "address"
        }
      ],
      "stateMutability": "view",
      "type": "function"
    },
    {
      "inputs": [
        {
          "internalType": "address",
          "name": "account",
          "type": "address"
        }
      ],
      "name": "isRetailer",
      "outputs": [
        {
          "internalType": "bool",
          "name": "",
          "type": "bool"
        }
      ],
      "stateMutability": "view",
      "type": "function"
    },
    {
      "inputs": [],
      "name": "kill",
      "outputs": [],
      "stateMutability": "nonpayable",
      "type": "function"
    },
    {
      "inputs": [],
      "name": "ownerLookup",
      "outputs": [
        {
          "internalType": "address",
          "name": "",
          "type": "address"
        }
      ],
      "stateMutability": "view",
      "type": "function"
    },
    {
      "inputs": [
        {
          "internalType": "uint256",
          "name": "_productCode",
          "type": "uint256"
        }
      ],
      "name": "purchaseItemByConsumer",
      "outputs": [],
      "stateMutability": "payable",
      "type": "function"
    },
    {
      "inputs": [
        {
          "internalType": "uint256",
          "name": "_productCode",
          "type": "uint256"
        }
      ],
      "name": "purchaseItemByDistributor",
      "outputs": [],
      "stateMutability": "payable",
      "type": "function"
    },
    {
      "inputs": [
        {
          "internalType": "uint256",
          "name": "_productCode",
          "type": "uint256"
        }
      ],
      "name": "purchaseItemByRetailer",
      "outputs": [],
      "stateMutability": "payable",
      "type": "function"
    },
    {
      "inputs": [
        {
          "internalType": "uint256",
          "name": "_productCode",
          "type": "uint256"
        }
      ],
      "name": "receivedItemByConsumer",
      "outputs": [],
      "stateMutability": "nonpayable",
      "type": "function"
    },
    {
      "inputs": [
        {
          "internalType": "uint256",
          "name": "_productCode",
          "type": "uint256"
        }
      ],
      "name": "receivedItemByDistributor",
      "outputs": [],
      "stateMutability": "nonpayable",
      "type": "function"
    },
    {
      "inputs": [
        {
          "internalType": "uint256",
          "name": "_productCode",
          "type": "uint256"
        }
      ],
      "name": "receivedItemByRetailer",
      "outputs": [],
      "stateMutability": "nonpayable",
      "type": "function"
    },
    {
      "inputs": [],
      "name": "renouceConsumer",
      "outputs": [],
      "stateMutability": "nonpayable",
      "type": "function"
    },
    {
      "inputs": [],
      "name": "renouceDistributor",
      "outputs": [],
      "stateMutability": "nonpayable",
      "type": "function"
    },
    {
      "inputs": [],
      "name": "renouceManufacturer",
      "outputs": [],
      "stateMutability": "nonpayable",
      "type": "function"
    },
    {
      "inputs": [],
      "name": "renouceRetailer",
      "outputs": [],
      "stateMutability": "nonpayable",
      "type": "function"
    },
    {
      "inputs": [],
      "name": "renounceOwnership",
      "outputs": [],
      "stateMutability": "nonpayable",
      "type": "function"
    },
    {
      "inputs": [
        {
          "internalType": "uint256",
          "name": "_productCode",
          "type": "uint256"
        },
        {
          "internalType": "uint256",
          "name": "_price",
          "type": "uint256"
        },
        {
          "internalType": "uint256",
          "name": "_productQuantity",
          "type": "uint256"
        }
      ],
      "name": "sellItemByDistributor",
      "outputs": [],
      "stateMutability": "nonpayable",
      "type": "function"
    },
    {
      "inputs": [
        {
          "internalType": "uint256",
          "name": "_productCode",
          "type": "uint256"
        },
        {
          "internalType": "uint256",
          "name": "_price",
          "type": "uint256"
        },
        {
          "internalType": "uint256",
          "name": "_productQuantity",
          "type": "uint256"
        }
      ],
      "name": "sellItemByManufacturer",
      "outputs": [],
      "stateMutability": "nonpayable",
      "type": "function"
    },
    {
      "inputs": [
        {
          "internalType": "uint256",
          "name": "_productCode",
          "type": "uint256"
        },
        {
          "internalType": "uint256",
          "name": "_price",
          "type": "uint256"
        },
        {
          "internalType": "uint256",
          "name": "_productQuantity",
          "type": "uint256"
        }
      ],
      "name": "sellItemByRetailer",
      "outputs": [],
      "stateMutability": "nonpayable",
      "type": "function"
    },
    {
      "inputs": [
        {
          "internalType": "uint256",
          "name": "_productCode",
          "type": "uint256"
        }
      ],
      "name": "shippedItemByDistributor",
      "outputs": [],
      "stateMutability": "payable",
      "type": "function"
    },
    {
      "inputs": [
        {
          "internalType": "uint256",
          "name": "_productCode",
          "type": "uint256"
        }
      ],
      "name": "shippedItemByManufacturer",
      "outputs": [],
      "stateMutability": "payable",
      "type": "function"
    },
    {
      "inputs": [
        {
          "internalType": "uint256",
          "name": "_productCode",
          "type": "uint256"
        }
      ],
      "name": "shippedItemByRetailer",
      "outputs": [],
      "stateMutability": "payable",
      "type": "function"
    },
    {
      "inputs": [
        {
          "internalType": "address",
          "name": "newOwner",
          "type": "address"
        }
      ],
      "name": "transferOwnership",
      "outputs": [],
      "stateMutability": "nonpayable",
      "type": "function"
    }
  ],
  "bytecode": "0x608060405262000024620000186200010a60201b60201c565b6200011260201b60201c565b62000044620000386200010a60201b60201c565b620001d660201b60201c565b62000064620000586200010a60201b60201c565b6200023760201b60201c565b62000084620000786200010a60201b60201c565b6200029860201b60201c565b620000a4620000986200010a60201b60201c565b620002f960201b60201c565b620000b46200010a60201b60201c565b600560006101000a81548173ffffffffffffffffffffffffffffffffffffffff021916908373ffffffffffffffffffffffffffffffffffffffff16021790555060016007819055506001600681905550620004a3565b600033905090565b60008060009054906101000a900473ffffffffffffffffffffffffffffffffffffffff169050816000806101000a81548173ffffffffffffffffffffffffffffffffffffffff021916908373ffffffffffffffffffffffffffffffffffffffff1602179055508173ffffffffffffffffffffffffffffffffffffffff168173ffffffffffffffffffffffffffffffffffffffff167f8be0079c531659141344cd1fd0a4f28419497f9722a3daafe3b4186f6b6457e060405160405180910390a35050565b620001f18160016200035a60201b620048d71790919060201c565b8073ffffffffffffffffffffffffffffffffffffffff167f561138658ca49a8540dc70dcfe64c9026c1c5b9344642242dd6562970f9c127860405160405180910390a250565b620002528160026200035a60201b620048d71790919060201c565b8073ffffffffffffffffffffffffffffffffffffffff167fddbf200aa634dc3fb81cfd68583dd1040d1c751d335e1d86b631bde3e977fea860405160405180910390a250565b620002b38160036200035a60201b620048d71790919060201c565b8073ffffffffffffffffffffffffffffffffffffffff167f71ae26cad02663e3d92efd6ec56031a80d74a20c0ab4183faa8bf262261c9baa60405160405180910390a250565b620003148160046200035a60201b620048d71790919060201c565b8073ffffffffffffffffffffffffffffffffffffffff167f28b26e7a3d20aedbc5f8f2ebf7da671c0491723a2b78f47a097b0e46dee0714260405160405180910390a250565b600073ffffffffffffffffffffffffffffffffffffffff168173ffffffffffffffffffffffffffffffffffffffff1614156200039557600080fd5b620003a782826200041060201b60201c565b15620003b257600080fd5b60018260000160008373ffffffffffffffffffffffffffffffffffffffff1673ffffffffffffffffffffffffffffffffffffffff16815260200190815260200160002060006101000a81548160ff0219169083151502179055505050565b60008073ffffffffffffffffffffffffffffffffffffffff168273ffffffffffffffffffffffffffffffffffffffff1614156200044c57600080fd5b8260000160008373ffffffffffffffffffffffffffffffffffffffff1673ffffffffffffffffffffffffffffffffffffffff16815260200190815260200160002060009054906101000a900460ff16905092915050565b615f9580620004b36000396000f3fe6080604052600436106102885760003560e01c80637ac57a871161015a578063b496bb11116100c1578063e34d7a071161007a578063e34d7a0714610925578063ebb0f07f1461093c578063f2fde38b14610967578063f6b15ad114610990578063f81ac48d146109ac578063fdcdc06f146109d757610288565b8063b496bb1114610843578063b9a40d041461086e578063d7c523101461088a578063df74dc3a146108b3578063e02e64ea146108cf578063e17195a1146108fa57610288565b80638f0c86fa116101135780638f0c86fa1461073e5780638f32d59b1461077b578063944adb7e146107a6578063a544973c146107c2578063a68b6dee146107ed578063af4a9c0f1461081857610288565b80637ac57a871461063d5780638142d2851461066857806382e831ec14610691578063834ff739146106ad578063842a9881146106ea5780638ec4f5051461071557610288565b80634ea90d2d116101fe57806366225ff9116101b757806366225ff9146105215780636f5604c314610565578063715018a61461058e5780637165d3a9146105a55780637250e224146105d057806377c45913146105f957610288565b80634ea90d2d14610439578063532564df1461045057806355ef7379146104675780635da09b88146104905780635f8a5afa146104cd5780636314c97e146104f657610288565b806324cb16691161025057806324cb16691461037257806326d529b41461039b5780633496c175146103b757806337b2f92c146103ce5780633edccd3e146103f757806341c0e1b51461042257610288565b80630114ae0c1461028d578063112940f9146102b857806311b8d6ba146102e157806316b069a21461030a57806317d4a49114610335575b600080fd5b34801561029957600080fd5b506102a26109f3565b6040516102af9190615925565b60405180910390f35b3480156102c457600080fd5b506102df60048036038101906102da919061514a565b610b12565b005b3480156102ed57600080fd5b5061030860048036038101906103039190615279565b610b37565b005b34801561031657600080fd5b5061031f610e00565b60405161032c91906158e1565b60405180910390f35b34801561034157600080fd5b5061035c6004803603810190610357919061514a565b610ec9565b6040516103699190615947565b60405180910390f35b34801561037e57600080fd5b50610399600480360381019061039491906151af565b610ee6565b005b6103b560048036038101906103b091906151af565b611140565b005b3480156103c357600080fd5b506103cc6114a1565b005b3480156103da57600080fd5b506103f560048036038101906103f091906151af565b6114b3565b005b34801561040357600080fd5b5061040c61170c565b604051610419919061589d565b60405180910390f35b34801561042e57600080fd5b506104376117df565b005b34801561044557600080fd5b5061044e611886565b005b34801561045c57600080fd5b50610465611898565b005b34801561047357600080fd5b5061048e600480360381019061048991906151d8565b6118aa565b005b34801561049c57600080fd5b506104b760048036038101906104b2919061514a565b611dfb565b6040516104c49190615947565b60405180910390f35b3480156104d957600080fd5b506104f460048036038101906104ef919061514a565b611e18565b005b34801561050257600080fd5b5061050b611e3d565b604051610518919061587b565b60405180910390f35b34801561052d57600080fd5b50610548600480360381019061054391906151af565b611f0b565b60405161055c989796959493929190615a27565b60405180910390f35b34801561057157600080fd5b5061058c600480360381019061058791906151af565b61229a565b005b34801561059a57600080fd5b506105a36124f4565b005b3480156105b157600080fd5b506105ba612508565b6040516105c791906158e1565b60405180910390f35b3480156105dc57600080fd5b506105f760048036038101906105f2919061514a565b6125d1565b005b34801561060557600080fd5b50610620600480360381019061061b91906151af565b6125f6565b6040516106349897969594939291906159a2565b60405180910390f35b34801561064957600080fd5b50610652612981565b60405161065f919061589d565b60405180910390f35b34801561067457600080fd5b5061068f600480360381019061068a9190615279565b612a54565b005b6106ab60048036038101906106a691906151af565b612d1d565b005b3480156106b957600080fd5b506106d460048036038101906106cf919061514a565b613010565b6040516106e19190615947565b60405180910390f35b3480156106f657600080fd5b506106ff61302d565b60405161070c9190615925565b60405180910390f35b34801561072157600080fd5b5061073c6004803603810190610737919061514a565b61314c565b005b34801561074a57600080fd5b506107656004803603810190610760919061514a565b613171565b6040516107729190615947565b60405180910390f35b34801561078757600080fd5b5061079061318e565b60405161079d9190615860565b60405180910390f35b6107c060048036038101906107bb9190615173565b6131b7565b005b3480156107ce57600080fd5b506107d761327a565b6040516107e491906158e1565b60405180910390f35b3480156107f957600080fd5b50610802613343565b60405161080f9190615903565b60405180910390f35b34801561082457600080fd5b5061082d61340c565b60405161083a9190615903565b60405180910390f35b34801561084f57600080fd5b506108586134d5565b60405161086591906158bf565b60405180910390f35b610888600480360381019061088391906151af565b613594565b005b34801561089657600080fd5b506108b160048036038101906108ac9190615279565b613887565b005b6108cd60048036038101906108c891906151af565b613b29565b005b3480156108db57600080fd5b506108e4613e8a565b6040516108f19190615860565b60405180910390f35b34801561090657600080fd5b5061090f613eb3565b60405161091c919061589d565b60405180910390f35b34801561093157600080fd5b5061093a613f86565b005b34801561094857600080fd5b50610951613f98565b60405161095e9190615903565b60405180910390f35b34801561097357600080fd5b5061098e6004803603810190610989919061514a565b614061565b005b6109aa60048036038101906109a591906151af565b6140e5565b005b3480156109b857600080fd5b506109c16143d8565b6040516109ce9190615925565b60405180910390f35b6109f160048036038101906109ec91906151af565b6144f7565b005b60606011805480602002602001604051908101604052809291908181526020016000905b82821015610b095783829060005260206000209060040201604051806080016040529081600082015481526020016001820160009054906101000a900473ffffffffffffffffffffffffffffffffffffffff1673ffffffffffffffffffffffffffffffffffffffff1673ffffffffffffffffffffffffffffffffffffffff1681526020016002820160009054906101000a900473ffffffffffffffffffffffffffffffffffffffff1673ffffffffffffffffffffffffffffffffffffffff1673ffffffffffffffffffffffffffffffffffffffff16815260200160038201548152505081526020019060010190610a17565b50505050905090565b610b22610b1d614983565b613010565b610b2b57600080fd5b610b348161498b565b50565b610b47610b42614983565b611dfb565b610b5057600080fd5b826008600c811115610b8b577f4e487b7100000000000000000000000000000000000000000000000000000000600052602160045260246000fd5b6008600083815260200190815260200160002060080160009054906101000a900460ff16600c811115610be7577f4e487b7100000000000000000000000000000000000000000000000000000000600052602160045260246000fd5b14610bf157600080fd5b8160086000868152602001908152602001600020600e015480821115610c1657600080fd5b6008600087815260200190815260200160002060040160009054906101000a900473ffffffffffffffffffffffffffffffffffffffff168073ffffffffffffffffffffffffffffffffffffffff16610c6c614983565b73ffffffffffffffffffffffffffffffffffffffff1614610c8c57600080fd5b60096008600089815260200190815260200160002060080160006101000a81548160ff0219169083600c811115610cec577f4e487b7100000000000000000000000000000000000000000000000000000000600052602160045260246000fd5b02179055508560086000898152602001908152602001600020600901819055508460086000898152602001908152602001600020600e0181905550600d6040518060800160405280898152602001610d42614983565b73ffffffffffffffffffffffffffffffffffffffff1681526020018781526020018881525090806001815401808255809150506001900390600052602060002090600402016000909190919091506000820151816000015560208201518160010160006101000a81548173ffffffffffffffffffffffffffffffffffffffff021916908373ffffffffffffffffffffffffffffffffffffffff1602179055506040820151816002015560608201518160030155505050505050505050565b6060600f805480602002602001604051908101604052809291908181526020016000905b82821015610ec05783829060005260206000209060030201604051806060016040529081600082015481526020016001820160009054906101000a900473ffffffffffffffffffffffffffffffffffffffff1673ffffffffffffffffffffffffffffffffffffffff1673ffffffffffffffffffffffffffffffffffffffff16815260200160028201548152505081526020019060010190610e24565b50505050905090565b6000610edf8260016149e590919063ffffffff16565b9050919050565b610ef6610ef1614983565b613171565b610eff57600080fd5b806003600c811115610f3a577f4e487b7100000000000000000000000000000000000000000000000000000000600052602160045260246000fd5b6008600083815260200190815260200160002060080160009054906101000a900460ff16600c811115610f96577f4e487b7100000000000000000000000000000000000000000000000000000000600052602160045260246000fd5b14610fa057600080fd5b6008600083815260200190815260200160002060040160009054906101000a900473ffffffffffffffffffffffffffffffffffffffff168073ffffffffffffffffffffffffffffffffffffffff16610ff6614983565b73ffffffffffffffffffffffffffffffffffffffff161461101657600080fd5b60046008600085815260200190815260200160002060080160006101000a81548160ff0219169083600c811115611076577f4e487b7100000000000000000000000000000000000000000000000000000000600052602160045260246000fd5b021790555060146040518060600160405280858152602001611096614983565b73ffffffffffffffffffffffffffffffffffffffff1681526020014281525090806001815401808255809150506001900390600052602060002090600302016000909190919091506000820151816000015560208201518160010160006101000a81548173ffffffffffffffffffffffffffffffffffffffff021916908373ffffffffffffffffffffffffffffffffffffffff160217905550604082015181600201555050505050565b61115061114b614983565b611dfb565b61115957600080fd5b806005600c811115611194577f4e487b7100000000000000000000000000000000000000000000000000000000600052602160045260246000fd5b6008600083815260200190815260200160002060080160009054906101000a900460ff16600c8111156111f0577f4e487b7100000000000000000000000000000000000000000000000000000000600052602160045260246000fd5b146111fa57600080fd5b60086000838152602001908152602001600020600901548034101561121e57600080fd5b600061125f60086000868152602001908152602001600020600b0160009054906101000a900473ffffffffffffffffffffffffffffffffffffffff16614a77565b90508073ffffffffffffffffffffffffffffffffffffffff166108fc60086000878152602001908152602001600020600901549081150290604051600060405180830381858888f193505050501580156112bd573d6000803e3d6000fd5b506112c6614983565b6008600086815260200190815260200160002060040160006101000a81548173ffffffffffffffffffffffffffffffffffffffff021916908373ffffffffffffffffffffffffffffffffffffffff160217905550611322614983565b60086000868152602001908152602001600020600c0160006101000a81548173ffffffffffffffffffffffffffffffffffffffff021916908373ffffffffffffffffffffffffffffffffffffffff16021790555060066008600086815260200190815260200160002060080160006101000a81548160ff0219169083600c8111156113d6577f4e487b7100000000000000000000000000000000000000000000000000000000600052602160045260246000fd5b0217905550600f60405180606001604052808681526020016113f6614983565b73ffffffffffffffffffffffffffffffffffffffff1681526020014281525090806001815401808255809150506001900390600052602060002090600302016000909190919091506000820151816000015560208201518160010160006101000a81548173ffffffffffffffffffffffffffffffffffffffff021916908373ffffffffffffffffffffffffffffffffffffffff16021790555060408201518160020155505050505050565b6114b16114ac614983565b614a81565b565b6114c36114be614983565b611dfb565b6114cc57600080fd5b806007600c811115611507577f4e487b7100000000000000000000000000000000000000000000000000000000600052602160045260246000fd5b6008600083815260200190815260200160002060080160009054906101000a900460ff16600c811115611563577f4e487b7100000000000000000000000000000000000000000000000000000000600052602160045260246000fd5b1461156d57600080fd5b6008600083815260200190815260200160002060040160009054906101000a900473ffffffffffffffffffffffffffffffffffffffff168073ffffffffffffffffffffffffffffffffffffffff166115c3614983565b73ffffffffffffffffffffffffffffffffffffffff16146115e357600080fd5b600880600085815260200190815260200160002060080160006101000a81548160ff0219169083600c811115611642577f4e487b7100000000000000000000000000000000000000000000000000000000600052602160045260246000fd5b021790555060156040518060600160405280858152602001611662614983565b73ffffffffffffffffffffffffffffffffffffffff1681526020014281525090806001815401808255809150506001900390600052602060002090600302016000909190919091506000820151816000015560208201518160010160006101000a81548173ffffffffffffffffffffffffffffffffffffffff021916908373ffffffffffffffffffffffffffffffffffffffff160217905550604082015181600201555050505050565b6060600c805480602002602001604051908101604052809291908181526020016000905b828210156117d65783829060005260206000209060040201604051806080016040529081600082015481526020016001820160009054906101000a900473ffffffffffffffffffffffffffffffffffffffff1673ffffffffffffffffffffffffffffffffffffffff1673ffffffffffffffffffffffffffffffffffffffff1681526020016002820154815260200160038201548152505081526020019060010190611730565b50505050905090565b600560009054906101000a900473ffffffffffffffffffffffffffffffffffffffff1673ffffffffffffffffffffffffffffffffffffffff16611820614983565b73ffffffffffffffffffffffffffffffffffffffff161415611884576000611869600560009054906101000a900473ffffffffffffffffffffffffffffffffffffffff16614a77565b90508073ffffffffffffffffffffffffffffffffffffffff16ff5b565b611896611891614983565b614adb565b565b6118a86118a3614983565b614b35565b565b6118ba6118b5614983565b610ec9565b6118c357600080fd5b60008060006118d0614ee4565b6118d8614983565b8160a0019073ffffffffffffffffffffffffffffffffffffffff16908173ffffffffffffffffffffffffffffffffffffffff16815250506007548160000181815250508981602001818152505061192d614983565b816080019073ffffffffffffffffffffffffffffffffffffffff16908173ffffffffffffffffffffffffffffffffffffffff1681525050888160e0018190525085816101200181815250506007548a6119869190615c78565b8160c00181815250506000816101000190600c8111156119cf577f4e487b7100000000000000000000000000000000000000000000000000000000600052602160045260246000fd5b9081600c811115611a09577f4e487b7100000000000000000000000000000000000000000000000000000000600052602160045260246000fd5b81525050878160400181815250508681606001818152505084816101c00181815250508381610160019073ffffffffffffffffffffffffffffffffffffffff16908173ffffffffffffffffffffffffffffffffffffffff16815250508281610180019073ffffffffffffffffffffffffffffffffffffffff16908173ffffffffffffffffffffffffffffffffffffffff168152505081816101a0019073ffffffffffffffffffffffffffffffffffffffff16908173ffffffffffffffffffffffffffffffffffffffff168152505060008161014001818152505080600860008c81526020019081526020016000206000820151816000015560208201518160010155604082015181600201556060820151816003015560808201518160040160006101000a81548173ffffffffffffffffffffffffffffffffffffffff021916908373ffffffffffffffffffffffffffffffffffffffff16021790555060a08201518160050160006101000a81548173ffffffffffffffffffffffffffffffffffffffff021916908373ffffffffffffffffffffffffffffffffffffffff16021790555060c0820151816006015560e0820151816007019080519060200190611bd3929190615000565b506101008201518160080160006101000a81548160ff0219169083600c811115611c26577f4e487b7100000000000000000000000000000000000000000000000000000000600052602160045260246000fd5b0217905550610120820151816009015561014082015181600a015561016082015181600b0160006101000a81548173ffffffffffffffffffffffffffffffffffffffff021916908373ffffffffffffffffffffffffffffffffffffffff16021790555061018082015181600c0160006101000a81548173ffffffffffffffffffffffffffffffffffffffff021916908373ffffffffffffffffffffffffffffffffffffffff1602179055506101a082015181600d0160006101000a81548173ffffffffffffffffffffffffffffffffffffffff021916908373ffffffffffffffffffffffffffffffffffffffff1602179055506101c082015181600e015590505060076000815480929190611d3a90615df0565b9190505550600a6040518060400160405280611d54614983565b73ffffffffffffffffffffffffffffffffffffffff1681526020018c815250908060018154018082558091505060019003906000526020600020906002020160009091909190915060008201518160000160006101000a81548173ffffffffffffffffffffffffffffffffffffffff021916908373ffffffffffffffffffffffffffffffffffffffff16021790555060208201518160010155505050505050505050505050565b6000611e118260036149e590919063ffffffff16565b9050919050565b611e28611e23614983565b610ec9565b611e3157600080fd5b611e3a81614b8f565b50565b60606009805480602002602001604051908101604052809291908181526020016000905b82821015611f02578382906000526020600020016040518060400160405290816000820160009054906101000a900473ffffffffffffffffffffffffffffffffffffffff1673ffffffffffffffffffffffffffffffffffffffff1673ffffffffffffffffffffffffffffffffffffffff1681526020016000820160149054906101000a900460ff1660ff1660ff168152505081526020019060010190611e61565b50505050905090565b6000806000806000806000806000600860008b8152602001908152602001600020604051806101e0016040529081600082015481526020016001820154815260200160028201548152602001600382015481526020016004820160009054906101000a900473ffffffffffffffffffffffffffffffffffffffff1673ffffffffffffffffffffffffffffffffffffffff1673ffffffffffffffffffffffffffffffffffffffff1681526020016005820160009054906101000a900473ffffffffffffffffffffffffffffffffffffffff1673ffffffffffffffffffffffffffffffffffffffff1673ffffffffffffffffffffffffffffffffffffffff1681526020016006820154815260200160078201805461202690615dbe565b80601f016020809104026020016040519081016040528092919081815260200182805461205290615dbe565b801561209f5780601f106120745761010080835404028352916020019161209f565b820191906000526020600020905b81548152906001019060200180831161208257829003601f168201915b505050505081526020016008820160009054906101000a900460ff16600c8111156120f3577f4e487b7100000000000000000000000000000000000000000000000000000000600052602160045260246000fd5b600c81111561212b577f4e487b7100000000000000000000000000000000000000000000000000000000600052602160045260246000fd5b815260200160098201548152602001600a8201548152602001600b820160009054906101000a900473ffffffffffffffffffffffffffffffffffffffff1673ffffffffffffffffffffffffffffffffffffffff1673ffffffffffffffffffffffffffffffffffffffff168152602001600c820160009054906101000a900473ffffffffffffffffffffffffffffffffffffffff1673ffffffffffffffffffffffffffffffffffffffff1673ffffffffffffffffffffffffffffffffffffffff168152602001600d820160009054906101000a900473ffffffffffffffffffffffffffffffffffffffff1673ffffffffffffffffffffffffffffffffffffffff1673ffffffffffffffffffffffffffffffffffffffff168152602001600e820154815250509050806000015181602001518260c00151836101200151846101000151856101600151866101800151876101a001519850985098509850985098509850985050919395975091939597565b6122aa6122a5614983565b613010565b6122b357600080fd5b80600b600c8111156122ee577f4e487b7100000000000000000000000000000000000000000000000000000000600052602160045260246000fd5b6008600083815260200190815260200160002060080160009054906101000a900460ff16600c81111561234a577f4e487b7100000000000000000000000000000000000000000000000000000000600052602160045260246000fd5b1461235457600080fd5b6008600083815260200190815260200160002060040160009054906101000a900473ffffffffffffffffffffffffffffffffffffffff168073ffffffffffffffffffffffffffffffffffffffff166123aa614983565b73ffffffffffffffffffffffffffffffffffffffff16146123ca57600080fd5b600c6008600085815260200190815260200160002060080160006101000a81548160ff0219169083600c81111561242a577f4e487b7100000000000000000000000000000000000000000000000000000000600052602160045260246000fd5b02179055506016604051806060016040528085815260200161244a614983565b73ffffffffffffffffffffffffffffffffffffffff1681526020014281525090806001815401808255809150506001900390600052602060002090600302016000909190919091506000820151816000015560208201518160010160006101000a81548173ffffffffffffffffffffffffffffffffffffffff021916908373ffffffffffffffffffffffffffffffffffffffff160217905550604082015181600201555050505050565b6124fc614be9565b6125066000614c67565b565b60606010805480602002602001604051908101604052809291908181526020016000905b828210156125c85783829060005260206000209060030201604051806060016040529081600082015481526020016001820160009054906101000a900473ffffffffffffffffffffffffffffffffffffffff1673ffffffffffffffffffffffffffffffffffffffff1673ffffffffffffffffffffffffffffffffffffffff1681526020016002820154815250508152602001906001019061252c565b50505050905090565b6125e16125dc614983565b613171565b6125ea57600080fd5b6125f381614d2b565b50565b6000806000806060600080600080600860008b8152602001908152602001600020604051806101e0016040529081600082015481526020016001820154815260200160028201548152602001600382015481526020016004820160009054906101000a900473ffffffffffffffffffffffffffffffffffffffff1673ffffffffffffffffffffffffffffffffffffffff1673ffffffffffffffffffffffffffffffffffffffff1681526020016005820160009054906101000a900473ffffffffffffffffffffffffffffffffffffffff1673ffffffffffffffffffffffffffffffffffffffff1673ffffffffffffffffffffffffffffffffffffffff1681526020016006820154815260200160078201805461271190615dbe565b80601f016020809104026020016040519081016040528092919081815260200182805461273d90615dbe565b801561278a5780601f1061275f5761010080835404028352916020019161278a565b820191906000526020600020905b81548152906001019060200180831161276d57829003601f168201915b505050505081526020016008820160009054906101000a900460ff16600c8111156127de577f4e487b7100000000000000000000000000000000000000000000000000000000600052602160045260246000fd5b600c811115612816577f4e487b7100000000000000000000000000000000000000000000000000000000600052602160045260246000fd5b815260200160098201548152602001600a8201548152602001600b820160009054906101000a900473ffffffffffffffffffffffffffffffffffffffff1673ffffffffffffffffffffffffffffffffffffffff1673ffffffffffffffffffffffffffffffffffffffff168152602001600c820160009054906101000a900473ffffffffffffffffffffffffffffffffffffffff1673ffffffffffffffffffffffffffffffffffffffff1673ffffffffffffffffffffffffffffffffffffffff168152602001600d820160009054906101000a900473ffffffffffffffffffffffffffffffffffffffff1673ffffffffffffffffffffffffffffffffffffffff1673ffffffffffffffffffffffffffffffffffffffff168152602001600e8201548152505090508060000151816020015182608001518360a001518460e00151856040015186606001518761010001519850985098509850985098509850985050919395975091939597565b6060600d805480602002602001604051908101604052809291908181526020016000905b82821015612a4b5783829060005260206000209060040201604051806080016040529081600082015481526020016001820160009054906101000a900473ffffffffffffffffffffffffffffffffffffffff1673ffffffffffffffffffffffffffffffffffffffff1673ffffffffffffffffffffffffffffffffffffffff16815260200160028201548152602001600382015481525050815260200190600101906129a5565b50505050905090565b612a64612a5f614983565b613171565b612a6d57600080fd5b826004600c811115612aa8577f4e487b7100000000000000000000000000000000000000000000000000000000600052602160045260246000fd5b6008600083815260200190815260200160002060080160009054906101000a900460ff16600c811115612b04577f4e487b7100000000000000000000000000000000000000000000000000000000600052602160045260246000fd5b14612b0e57600080fd5b8160086000868152602001908152602001600020600e015480821115612b3357600080fd5b6008600087815260200190815260200160002060040160009054906101000a900473ffffffffffffffffffffffffffffffffffffffff168073ffffffffffffffffffffffffffffffffffffffff16612b89614983565b73ffffffffffffffffffffffffffffffffffffffff1614612ba957600080fd5b60056008600089815260200190815260200160002060080160006101000a81548160ff0219169083600c811115612c09577f4e487b7100000000000000000000000000000000000000000000000000000000600052602160045260246000fd5b02179055508560086000898152602001908152602001600020600901819055508460086000898152602001908152602001600020600e0181905550600c6040518060800160405280898152602001612c5f614983565b73ffffffffffffffffffffffffffffffffffffffff1681526020018781526020018881525090806001815401808255809150506001900390600052602060002090600402016000909190919091506000820151816000015560208201518160010160006101000a81548173ffffffffffffffffffffffffffffffffffffffff021916908373ffffffffffffffffffffffffffffffffffffffff1602179055506040820151816002015560608201518160030155505050505050505050565b612d2d612d28614983565b613171565b612d3657600080fd5b806006600c811115612d71577f4e487b7100000000000000000000000000000000000000000000000000000000600052602160045260246000fd5b6008600083815260200190815260200160002060080160009054906101000a900460ff16600c811115612dcd577f4e487b7100000000000000000000000000000000000000000000000000000000600052602160045260246000fd5b14612dd757600080fd5b60086000838152602001908152602001600020600b0160009054906101000a900473ffffffffffffffffffffffffffffffffffffffff168073ffffffffffffffffffffffffffffffffffffffff16612e2d614983565b73ffffffffffffffffffffffffffffffffffffffff1614612e4d57600080fd5b60076008600085815260200190815260200160002060080160006101000a81548160ff0219169083600c811115612ead577f4e487b7100000000000000000000000000000000000000000000000000000000600052602160045260246000fd5b021790555060126040518060800160405280858152602001612ecd614983565b73ffffffffffffffffffffffffffffffffffffffff16815260200160086000878152602001908152602001600020600c0160009054906101000a900473ffffffffffffffffffffffffffffffffffffffff1673ffffffffffffffffffffffffffffffffffffffff1681526020014281525090806001815401808255809150506001900390600052602060002090600402016000909190919091506000820151816000015560208201518160010160006101000a81548173ffffffffffffffffffffffffffffffffffffffff021916908373ffffffffffffffffffffffffffffffffffffffff16021790555060408201518160020160006101000a81548173ffffffffffffffffffffffffffffffffffffffff021916908373ffffffffffffffffffffffffffffffffffffffff160217905550606082015181600301555050505050565b60006130268260046149e590919063ffffffff16565b9050919050565b60606013805480602002602001604051908101604052809291908181526020016000905b828210156131435783829060005260206000209060040201604051806080016040529081600082015481526020016001820160009054906101000a900473ffffffffffffffffffffffffffffffffffffffff1673ffffffffffffffffffffffffffffffffffffffff1673ffffffffffffffffffffffffffffffffffffffff1681526020016002820160009054906101000a900473ffffffffffffffffffffffffffffffffffffffff1673ffffffffffffffffffffffffffffffffffffffff1673ffffffffffffffffffffffffffffffffffffffff16815260200160038201548152505081526020019060010190613051565b50505050905090565b61315c613157614983565b611dfb565b61316557600080fd5b61316e81614d85565b50565b60006131878260026149e590919063ffffffff16565b9050919050565b60008060009054906101000a900473ffffffffffffffffffffffffffffffffffffffff16905090565b600960405180604001604052808473ffffffffffffffffffffffffffffffffffffffff1681526020018360ff168152509080600181540180825580915050600190039060005260206000200160009091909190915060008201518160000160006101000a81548173ffffffffffffffffffffffffffffffffffffffff021916908373ffffffffffffffffffffffffffffffffffffffff16021790555060208201518160000160146101000a81548160ff021916908360ff16021790555050505050565b6060600e805480602002602001604051908101604052809291908181526020016000905b8282101561333a5783829060005260206000209060030201604051806060016040529081600082015481526020016001820160009054906101000a900473ffffffffffffffffffffffffffffffffffffffff1673ffffffffffffffffffffffffffffffffffffffff1673ffffffffffffffffffffffffffffffffffffffff1681526020016002820154815250508152602001906001019061329e565b50505050905090565b60606015805480602002602001604051908101604052809291908181526020016000905b828210156134035783829060005260206000209060030201604051806060016040529081600082015481526020016001820160009054906101000a900473ffffffffffffffffffffffffffffffffffffffff1673ffffffffffffffffffffffffffffffffffffffff1673ffffffffffffffffffffffffffffffffffffffff16815260200160028201548152505081526020019060010190613367565b50505050905090565b60606014805480602002602001604051908101604052809291908181526020016000905b828210156134cc5783829060005260206000209060030201604051806060016040529081600082015481526020016001820160009054906101000a900473ffffffffffffffffffffffffffffffffffffffff1673ffffffffffffffffffffffffffffffffffffffff1673ffffffffffffffffffffffffffffffffffffffff16815260200160028201548152505081526020019060010190613430565b50505050905090565b6060600a805480602002602001604051908101604052809291908181526020016000905b8282101561358b57838290600052602060002090600202016040518060400160405290816000820160009054906101000a900473ffffffffffffffffffffffffffffffffffffffff1673ffffffffffffffffffffffffffffffffffffffff1673ffffffffffffffffffffffffffffffffffffffff168152602001600182015481525050815260200190600101906134f9565b50505050905090565b6135a461359f614983565b610ec9565b6135ad57600080fd5b806002600c8111156135e8577f4e487b7100000000000000000000000000000000000000000000000000000000600052602160045260246000fd5b6008600083815260200190815260200160002060080160009054906101000a900460ff16600c811115613644577f4e487b7100000000000000000000000000000000000000000000000000000000600052602160045260246000fd5b1461364e57600080fd5b6008600083815260200190815260200160002060050160009054906101000a900473ffffffffffffffffffffffffffffffffffffffff168073ffffffffffffffffffffffffffffffffffffffff166136a4614983565b73ffffffffffffffffffffffffffffffffffffffff16146136c457600080fd5b60036008600085815260200190815260200160002060080160006101000a81548160ff0219169083600c811115613724577f4e487b7100000000000000000000000000000000000000000000000000000000600052602160045260246000fd5b021790555060116040518060800160405280858152602001613744614983565b73ffffffffffffffffffffffffffffffffffffffff16815260200160086000878152602001908152602001600020600b0160009054906101000a900473ffffffffffffffffffffffffffffffffffffffff1673ffffffffffffffffffffffffffffffffffffffff1681526020014281525090806001815401808255809150506001900390600052602060002090600402016000909190919091506000820151816000015560208201518160010160006101000a81548173ffffffffffffffffffffffffffffffffffffffff021916908373ffffffffffffffffffffffffffffffffffffffff16021790555060408201518160020160006101000a81548173ffffffffffffffffffffffffffffffffffffffff021916908373ffffffffffffffffffffffffffffffffffffffff160217905550606082015181600301555050505050565b613897613892614983565b610ec9565b6138a057600080fd5b826000600c8111156138db577f4e487b7100000000000000000000000000000000000000000000000000000000600052602160045260246000fd5b6008600083815260200190815260200160002060080160009054906101000a900460ff16600c811115613937577f4e487b7100000000000000000000000000000000000000000000000000000000600052602160045260246000fd5b1461394157600080fd5b6008600085815260200190815260200160002060040160009054906101000a900473ffffffffffffffffffffffffffffffffffffffff168073ffffffffffffffffffffffffffffffffffffffff16613997614983565b73ffffffffffffffffffffffffffffffffffffffff16146139b757600080fd5b60016008600087815260200190815260200160002060080160006101000a81548160ff0219169083600c811115613a17577f4e487b7100000000000000000000000000000000000000000000000000000000600052602160045260246000fd5b02179055508360086000878152602001908152602001600020600901819055508260086000878152602001908152602001600020600e0181905550600b6040518060800160405280878152602001613a6d614983565b73ffffffffffffffffffffffffffffffffffffffff1681526020018581526020018681525090806001815401808255809150506001900390600052602060002090600402016000909190919091506000820151816000015560208201518160010160006101000a81548173ffffffffffffffffffffffffffffffffffffffff021916908373ffffffffffffffffffffffffffffffffffffffff160217905550604082015181600201556060820151816003015550505050505050565b613b39613b34614983565b613010565b613b4257600080fd5b806009600c811115613b7d577f4e487b7100000000000000000000000000000000000000000000000000000000600052602160045260246000fd5b6008600083815260200190815260200160002060080160009054906101000a900460ff16600c811115613bd9577f4e487b7100000000000000000000000000000000000000000000000000000000600052602160045260246000fd5b14613be357600080fd5b600860008381526020019081526020016000206009015480341015613c0757600080fd5b6000613c4860086000868152602001908152602001600020600c0160009054906101000a900473ffffffffffffffffffffffffffffffffffffffff16614a77565b90508073ffffffffffffffffffffffffffffffffffffffff166108fc60086000878152602001908152602001600020600901549081150290604051600060405180830381858888f19350505050158015613ca6573d6000803e3d6000fd5b50613caf614983565b6008600086815260200190815260200160002060040160006101000a81548173ffffffffffffffffffffffffffffffffffffffff021916908373ffffffffffffffffffffffffffffffffffffffff160217905550613d0b614983565b60086000868152602001908152602001600020600d0160006101000a81548173ffffffffffffffffffffffffffffffffffffffff021916908373ffffffffffffffffffffffffffffffffffffffff160217905550600a6008600086815260200190815260200160002060080160006101000a81548160ff0219169083600c811115613dbf577f4e487b7100000000000000000000000000000000000000000000000000000000600052602160045260246000fd5b021790555060106040518060600160405280868152602001613ddf614983565b73ffffffffffffffffffffffffffffffffffffffff1681526020014281525090806001815401808255809150506001900390600052602060002090600302016000909190919091506000820151816000015560208201518160010160006101000a81548173ffffffffffffffffffffffffffffffffffffffff021916908373ffffffffffffffffffffffffffffffffffffffff16021790555060408201518160020155505050505050565b60008060009054906101000a900473ffffffffffffffffffffffffffffffffffffffff16905090565b6060600b805480602002602001604051908101604052809291908181526020016000905b82821015613f7d5783829060005260206000209060040201604051806080016040529081600082015481526020016001820160009054906101000a900473ffffffffffffffffffffffffffffffffffffffff1673ffffffffffffffffffffffffffffffffffffffff1673ffffffffffffffffffffffffffffffffffffffff1681526020016002820154815260200160038201548152505081526020019060010190613ed7565b50505050905090565b613f96613f91614983565b614ddf565b565b60606016805480602002602001604051908101604052809291908181526020016000905b828210156140585783829060005260206000209060030201604051806060016040529081600082015481526020016001820160009054906101000a900473ffffffffffffffffffffffffffffffffffffffff1673ffffffffffffffffffffffffffffffffffffffff1673ffffffffffffffffffffffffffffffffffffffff16815260200160028201548152505081526020019060010190613fbc565b50505050905090565b614069614be9565b600073ffffffffffffffffffffffffffffffffffffffff168173ffffffffffffffffffffffffffffffffffffffff1614156140d9576040517f08c379a00000000000000000000000000000000000000000000000000000000081526004016140d090615962565b60405180910390fd5b6140e281614c67565b50565b6140f56140f0614983565b611dfb565b6140fe57600080fd5b80600a600c811115614139577f4e487b7100000000000000000000000000000000000000000000000000000000600052602160045260246000fd5b6008600083815260200190815260200160002060080160009054906101000a900460ff16600c811115614195577f4e487b7100000000000000000000000000000000000000000000000000000000600052602160045260246000fd5b1461419f57600080fd5b60086000838152602001908152602001600020600c0160009054906101000a900473ffffffffffffffffffffffffffffffffffffffff168073ffffffffffffffffffffffffffffffffffffffff166141f5614983565b73ffffffffffffffffffffffffffffffffffffffff161461421557600080fd5b600b6008600085815260200190815260200160002060080160006101000a81548160ff0219169083600c811115614275577f4e487b7100000000000000000000000000000000000000000000000000000000600052602160045260246000fd5b021790555060136040518060800160405280858152602001614295614983565b73ffffffffffffffffffffffffffffffffffffffff16815260200160086000878152602001908152602001600020600d0160009054906101000a900473ffffffffffffffffffffffffffffffffffffffff1673ffffffffffffffffffffffffffffffffffffffff1681526020014281525090806001815401808255809150506001900390600052602060002090600402016000909190919091506000820151816000015560208201518160010160006101000a81548173ffffffffffffffffffffffffffffffffffffffff021916908373ffffffffffffffffffffffffffffffffffffffff16021790555060408201518160020160006101000a81548173ffffffffffffffffffffffffffffffffffffffff021916908373ffffffffffffffffffffffffffffffffffffffff160217905550606082015181600301555050505050565b60606012805480602002602001604051908101604052809291908181526020016000905b828210156144ee5783829060005260206000209060040201604051806080016040529081600082015481526020016001820160009054906101000a900473ffffffffffffffffffffffffffffffffffffffff1673ffffffffffffffffffffffffffffffffffffffff1673ffffffffffffffffffffffffffffffffffffffff1681526020016002820160009054906101000a900473ffffffffffffffffffffffffffffffffffffffff1673ffffffffffffffffffffffffffffffffffffffff1673ffffffffffffffffffffffffffffffffffffffff168152602001600382015481525050815260200190600101906143fc565b50505050905090565b614507614502614983565b613171565b61451057600080fd5b806001600c81111561454b577f4e487b7100000000000000000000000000000000000000000000000000000000600052602160045260246000fd5b6008600083815260200190815260200160002060080160009054906101000a900460ff16600c8111156145a7577f4e487b7100000000000000000000000000000000000000000000000000000000600052602160045260246000fd5b146145b157600080fd5b6008600083815260200190815260200160002060090154803410156145d557600080fd5b826145de614983565b600060086000848152602001908152602001600020600901549050600081346146079190615cce565b90508273ffffffffffffffffffffffffffffffffffffffff166108fc829081150290604051600060405180830381858888f1935050505015801561464f573d6000803e3d6000fd5b506000614691600860008a815260200190815260200160002060050160009054906101000a900473ffffffffffffffffffffffffffffffffffffffff16614a77565b90508073ffffffffffffffffffffffffffffffffffffffff166108fc600860008b8152602001908152602001600020600901549081150290604051600060405180830381858888f193505050501580156146ef573d6000803e3d6000fd5b506146f8614983565b600860008a815260200190815260200160002060040160006101000a81548173ffffffffffffffffffffffffffffffffffffffff021916908373ffffffffffffffffffffffffffffffffffffffff160217905550614754614983565b600860008a8152602001908152602001600020600b0160006101000a81548173ffffffffffffffffffffffffffffffffffffffff021916908373ffffffffffffffffffffffffffffffffffffffff1602179055506002600860008a815260200190815260200160002060080160006101000a81548160ff0219169083600c811115614808577f4e487b7100000000000000000000000000000000000000000000000000000000600052602160045260246000fd5b0217905550600e60405180606001604052808a8152602001614828614983565b73ffffffffffffffffffffffffffffffffffffffff1681526020014281525090806001815401808255809150506001900390600052602060002090600302016000909190919091506000820151816000015560208201518160010160006101000a81548173ffffffffffffffffffffffffffffffffffffffff021916908373ffffffffffffffffffffffffffffffffffffffff1602179055506040820151816002015550505050505050505050565b600073ffffffffffffffffffffffffffffffffffffffff168173ffffffffffffffffffffffffffffffffffffffff16141561491157600080fd5b61491b82826149e5565b1561492557600080fd5b60018260000160008373ffffffffffffffffffffffffffffffffffffffff1673ffffffffffffffffffffffffffffffffffffffff16815260200190815260200160002060006101000a81548160ff0219169083151502179055505050565b600033905090565b61499f8160046148d790919063ffffffff16565b8073ffffffffffffffffffffffffffffffffffffffff167f28b26e7a3d20aedbc5f8f2ebf7da671c0491723a2b78f47a097b0e46dee0714260405160405180910390a250565b60008073ffffffffffffffffffffffffffffffffffffffff168273ffffffffffffffffffffffffffffffffffffffff161415614a2057600080fd5b8260000160008373ffffffffffffffffffffffffffffffffffffffff1673ffffffffffffffffffffffffffffffffffffffff16815260200190815260200160002060009054906101000a900460ff16905092915050565b6000819050919050565b614a95816004614e3990919063ffffffff16565b8073ffffffffffffffffffffffffffffffffffffffff167fe3f5ed5f263f1f01764a96edfc7d025f511ec5f7d180e8816908b78bcf74f09860405160405180910390a250565b614aef816002614e3990919063ffffffff16565b8073ffffffffffffffffffffffffffffffffffffffff167f126174f6cf49c81cdb4a9214c6b8f037bef55b4ec31e4fc776cea2a1c8a88d5960405160405180910390a250565b614b49816001614e3990919063ffffffff16565b8073ffffffffffffffffffffffffffffffffffffffff167f2fed5abf6a80d6dfe30b4895481b2fc5d7dce5f8f7b931832f4a2947d5040c7f60405160405180910390a250565b614ba38160016148d790919063ffffffff16565b8073ffffffffffffffffffffffffffffffffffffffff167f561138658ca49a8540dc70dcfe64c9026c1c5b9344642242dd6562970f9c127860405160405180910390a250565b614bf161318e565b73ffffffffffffffffffffffffffffffffffffffff16614c0f614983565b73ffffffffffffffffffffffffffffffffffffffff1614614c65576040517f08c379a0000000000000000000000000000000000000000000000000000000008152600401614c5c90615982565b60405180910390fd5b565b60008060009054906101000a900473ffffffffffffffffffffffffffffffffffffffff169050816000806101000a81548173ffffffffffffffffffffffffffffffffffffffff021916908373ffffffffffffffffffffffffffffffffffffffff1602179055508173ffffffffffffffffffffffffffffffffffffffff168173ffffffffffffffffffffffffffffffffffffffff167f8be0079c531659141344cd1fd0a4f28419497f9722a3daafe3b4186f6b6457e060405160405180910390a35050565b614d3f8160026148d790919063ffffffff16565b8073ffffffffffffffffffffffffffffffffffffffff167fddbf200aa634dc3fb81cfd68583dd1040d1c751d335e1d86b631bde3e977fea860405160405180910390a250565b614d998160036148d790919063ffffffff16565b8073ffffffffffffffffffffffffffffffffffffffff167f71ae26cad02663e3d92efd6ec56031a80d74a20c0ab4183faa8bf262261c9baa60405160405180910390a250565b614df3816003614e3990919063ffffffff16565b8073ffffffffffffffffffffffffffffffffffffffff167fdb7176e79cffef81cb01767dd0447a0b24bb72ca9778d4b245581086b2a7e6db60405160405180910390a250565b600073ffffffffffffffffffffffffffffffffffffffff168173ffffffffffffffffffffffffffffffffffffffff161415614e7357600080fd5b614e7d82826149e5565b614e8657600080fd5b60008260000160008373ffffffffffffffffffffffffffffffffffffffff1673ffffffffffffffffffffffffffffffffffffffff16815260200190815260200160002060006101000a81548160ff0219169083151502179055505050565b604051806101e0016040528060008152602001600081526020016000815260200160008152602001600073ffffffffffffffffffffffffffffffffffffffff168152602001600073ffffffffffffffffffffffffffffffffffffffff16815260200160008152602001606081526020016000600c811115614f8e577f4e487b7100000000000000000000000000000000000000000000000000000000600052602160045260246000fd5b81526020016000815260200160008152602001600073ffffffffffffffffffffffffffffffffffffffff168152602001600073ffffffffffffffffffffffffffffffffffffffff168152602001600073ffffffffffffffffffffffffffffffffffffffff168152602001600081525090565b82805461500c90615dbe565b90600052602060002090601f01602090048101928261502e5760008555615075565b82601f1061504757805160ff1916838001178555615075565b82800160010185558215615075579182015b82811115615074578251825591602001919060010190615059565b5b5090506150829190615086565b5090565b5b8082111561509f576000816000905550600101615087565b5090565b60006150b66150b184615ad6565b615aa5565b9050828152602081018484840111156150ce57600080fd5b6150d9848285615d7c565b509392505050565b6000813590506150f081615f1a565b92915050565b600082601f83011261510757600080fd5b81356151178482602086016150a3565b91505092915050565b60008135905061512f81615f31565b92915050565b60008135905061514481615f48565b92915050565b60006020828403121561515c57600080fd5b600061516a848285016150e1565b91505092915050565b6000806040838503121561518657600080fd5b6000615194858286016150e1565b92505060206151a585828601615135565b9150509250929050565b6000602082840312156151c157600080fd5b60006151cf84828501615120565b91505092915050565b60008060008060008060c087890312156151f157600080fd5b60006151ff89828a01615120565b965050602087013567ffffffffffffffff81111561521c57600080fd5b61522889828a016150f6565b955050604061523989828a01615120565b945050606061524a89828a01615120565b935050608061525b89828a01615120565b92505060a061526c89828a01615120565b9150509295509295509295565b60008060006060848603121561528e57600080fd5b600061529c86828701615120565b93505060206152ad86828701615120565b92505060406152be86828701615120565b9150509250925092565b60006152d483836156a7565b60408301905092915050565b60006152ec83836156d6565b60808301905092915050565b6000615304838361572b565b60408301905092915050565b600061531c838361575a565b60608301905092915050565b6000615334838361579c565b60608301905092915050565b600061534c83836157de565b60808301905092915050565b61536181615d02565b82525050565b61537081615d02565b82525050565b600061538182615b66565b61538b8185615c01565b935061539683615b06565b8060005b838110156153c75781516153ae88826152c8565b97506153b983615bb3565b92505060018101905061539a565b5085935050505092915050565b60006153df82615b71565b6153e98185615c12565b93506153f483615b16565b8060005b8381101561542557815161540c88826152e0565b975061541783615bc0565b9250506001810190506153f8565b5085935050505092915050565b600061543d82615b7c565b6154478185615c23565b935061545283615b26565b8060005b8381101561548357815161546a88826152f8565b975061547583615bcd565b925050600181019050615456565b5085935050505092915050565b600061549b82615b87565b6154a58185615c34565b93506154b083615b36565b8060005b838110156154e15781516154c88882615310565b97506154d383615bda565b9250506001810190506154b4565b5085935050505092915050565b60006154f982615b92565b6155038185615c45565b935061550e83615b46565b8060005b8381101561553f5781516155268882615328565b975061553183615be7565b925050600181019050615512565b5085935050505092915050565b600061555782615b9d565b6155618185615c56565b935061556c83615b56565b8060005b8381101561559d5781516155848882615340565b975061558f83615bf4565b925050600181019050615570565b5085935050505092915050565b6155b381615d14565b82525050565b6155c281615d6a565b82525050565b60006155d382615ba8565b6155dd8185615c67565b93506155ed818560208601615d8b565b6155f681615ef5565b840191505092915050565b600061560e602683615c67565b91507f4f776e61626c653a206e6577206f776e657220697320746865207a65726f206160008301527f64647265737300000000000000000000000000000000000000000000000000006020830152604082019050919050565b6000615674602083615c67565b91507f4f776e61626c653a2063616c6c6572206973206e6f7420746865206f776e65726000830152602082019050919050565b6040820160008201516156bd6000850182615358565b5060208201516156d06020850182615851565b50505050565b6080820160008201516156ec6000850182615833565b5060208201516156ff6020850182615358565b5060408201516157126040850182615833565b5060608201516157256060850182615833565b50505050565b6040820160008201516157416000850182615358565b5060208201516157546020850182615833565b50505050565b6060820160008201516157706000850182615833565b5060208201516157836020850182615358565b5060408201516157966040850182615833565b50505050565b6060820160008201516157b26000850182615833565b5060208201516157c56020850182615358565b5060408201516157d86040850182615833565b50505050565b6080820160008201516157f46000850182615833565b5060208201516158076020850182615358565b50604082015161581a6040850182615358565b50606082015161582d6060850182615833565b50505050565b61583c81615d53565b82525050565b61584b81615d53565b82525050565b61585a81615d5d565b82525050565b60006020820190506158756000830184615367565b92915050565b600060208201905081810360008301526158958184615376565b905092915050565b600060208201905081810360008301526158b781846153d4565b905092915050565b600060208201905081810360008301526158d98184615432565b905092915050565b600060208201905081810360008301526158fb8184615490565b905092915050565b6000602082019050818103600083015261591d81846154ee565b905092915050565b6000602082019050818103600083015261593f818461554c565b905092915050565b600060208201905061595c60008301846155aa565b92915050565b6000602082019050818103600083015261597b81615601565b9050919050565b6000602082019050818103600083015261599b81615667565b9050919050565b6000610100820190506159b8600083018b615842565b6159c5602083018a615842565b6159d26040830189615367565b6159df6060830188615367565b81810360808301526159f181876155c8565b9050615a0060a0830186615842565b615a0d60c0830185615842565b615a1a60e08301846155b9565b9998505050505050505050565b600061010082019050615a3d600083018b615842565b615a4a602083018a615842565b615a576040830189615842565b615a646060830188615842565b615a7160808301876155b9565b615a7e60a0830186615367565b615a8b60c0830185615367565b615a9860e0830184615367565b9998505050505050505050565b6000604051905081810181811067ffffffffffffffff82111715615acc57615acb615ec6565b5b8060405250919050565b600067ffffffffffffffff821115615af157615af0615ec6565b5b601f19601f8301169050602081019050919050565b6000819050602082019050919050565b6000819050602082019050919050565b6000819050602082019050919050565b6000819050602082019050919050565b6000819050602082019050919050565b6000819050602082019050919050565b600081519050919050565b600081519050919050565b600081519050919050565b600081519050919050565b600081519050919050565b600081519050919050565b600081519050919050565b6000602082019050919050565b6000602082019050919050565b6000602082019050919050565b6000602082019050919050565b6000602082019050919050565b6000602082019050919050565b600082825260208201905092915050565b600082825260208201905092915050565b600082825260208201905092915050565b600082825260208201905092915050565b600082825260208201905092915050565b600082825260208201905092915050565b600082825260208201905092915050565b6000615c8382615d53565b9150615c8e83615d53565b9250827fffffffffffffffffffffffffffffffffffffffffffffffffffffffffffffffff03821115615cc357615cc2615e39565b5b828201905092915050565b6000615cd982615d53565b9150615ce483615d53565b925082821015615cf757615cf6615e39565b5b828203905092915050565b6000615d0d82615d33565b9050919050565b60008115159050919050565b6000819050615d2e82615f06565b919050565b600073ffffffffffffffffffffffffffffffffffffffff82169050919050565b6000819050919050565b600060ff82169050919050565b6000615d7582615d20565b9050919050565b82818337600083830152505050565b60005b83811015615da9578082015181840152602081019050615d8e565b83811115615db8576000848401525b50505050565b60006002820490506001821680615dd657607f821691505b60208210811415615dea57615de9615e97565b5b50919050565b6000615dfb82615d53565b91507fffffffffffffffffffffffffffffffffffffffffffffffffffffffffffffffff821415615e2e57615e2d615e39565b5b600182019050919050565b7f4e487b7100000000000000000000000000000000000000000000000000000000600052601160045260246000fd5b7f4e487b7100000000000000000000000000000000000000000000000000000000600052602160045260246000fd5b7f4e487b7100000000000000000000000000000000000000000000000000000000600052602260045260246000fd5b7f4e487b7100000000000000000000000000000000000000000000000000000000600052604160045260246000fd5b6000601f19601f8301169050919050565b600d8110615f1757615f16615e68565b5b50565b615f2381615d02565b8114615f2e57600080fd5b50565b615f3a81615d53565b8114615f4557600080fd5b50565b615f5181615d5d565b8114615f5c57600080fd5b5056fea264697066735822122072d7e767297f8a8675521f21e055db3453fbe86d60186ea7d9f8c9b87f0f7de364736f6c63430008000033",
  "linkReferences": {},
  "deployedLinkReferences": {}
}